:020000040800F2
:1030000000500020CD4000086140000863400008E7
:1030100065400008674000086940000800000000A3
:103020000000000000000000000000006B400008ED
:103030006D400008000000006F400008714000086B
:103040001541000815410008154100081541000808
:1030500015410008154100081541000815410008F8
:1030600015410008154100081541000815410008E8
:1030700015410008154100081541000815410008D8
:1030800015410008154100081541000815410008C8
:1030900015410008154100081541000815410008B8
:1030A00015410008154100081541000815410008A8
:1030B0001541000815410008154100081541000898
:1030C0001541000815410008154100081541000888
:1030D0001541000815410008154100081541000878
:1030E00015410008154100081541000800000000C6
:1030F00000000000000000000000000000000000D0
:0C31000000000000000000005FF808F173
:10310C0010B5054C237833B9044B13B10448AFF315
:10311C0000800123237010BD04000020000000007B
:10312C006041000808B5034B1BB103490348AFF3DA
:10313C00008008BD0000000008000020604100086D
:10314C00034613F8012B002AFBD1181A01387047DB
:10315C00084B10B5044618684FF47A73B0FBF3F0C3
:10316C0000F070F8002221464FF0FF3000F036F8E6
:10317C00002010BD00000020074A08B5136803208A
:10318C0043F01003136000F017F80020FFF7E0FF86
:10319C0000F018FF002008BD00200240024A13680E
:1031AC0001331360704700BF20000020014B1868EA
:1031BC00704700BF20000020074A0002D36800F4CB
:1031CC00E06023F4E0631B041B0C43F0BF6343F487
:1031DC0000330343D360704700ED00E0174B30B56C
:1031EC00DC68C4F30224C4F10703251D042B28BF9B
:1031FC000423062D4FF0010598BF002405FA03F3B4
:10320C0003F1FF3388BF033C1940A14005FA04F4D5
:10321C00013C2240002842EA01024FEA0212AFBFF1
:10322C0000F16040064B00F00F00D2B2A5BFD2B245
:10323C0000F561401A5480F8002330BD00ED00E029
:10324C0014ED00E00138B0F1807F0AD2F021064B7A
:10325C00064A586082F823100020072298601A60F2
:10326C0070470120704700BF10E000E000ED00E067
:10327C00044B04281A680CBF42F0040222F004022A
:10328C001A60704710E000E0704708B5FFF7FCFFCC
:10329C0008BD00002DE9F74F00221646654BDFF8FC
:1032AC00A4E1DFF8A4C14FF001080C6808FA06F895
:1032BC0008EA0404A0457FD14D68122D00F0AF80C0
:1032CC0000F28880022D00F0A7807CD8002D00F041
:1032DC008E80012D00F09E804FF00F09FF2C93BFC4
:1032EC00824606F18045083DD0F800B092BFB5008B
:1032FC00D0F804B0AD0009FA05F82BEA080802FA78
:10330C0005F588BF00F1040A48EA0505CAF8005023
:10331C00D1F804A01AF0805F4ED0474D464FAD69EE
:10332C0026F0030845F00105BD61BD6908F1804830
:10333C0005F00105019508F5803806F0030B019D99
:10334C004FEA8B0BD8F8085009FA0BF925EA090952
:10335C003A4DA84268D005F58065A84266D005F5BF
:10336C008065A84264D005F58065A8420CBF032592
:10337C00042505FA0BF545EA0905C8F808501D683F
:10338C001AF4803F14BF2543A5431D605D681AF4F1
:10339C00003F14BF2543A5435D609D681AF4801F50
:1033AC0014BF2543A5439D60DD681AF4001F14BFAC
:1033BC002C4325EA0404DC600136102E7FF473AF35
:1033CC0003B0BDE8F08F032D22D0112D84D1CA6833
:1033DC00043281E71A4FBD4209D012D8DFF86C9045
:1033EC004D4504D009F580394D457FF475AF8A6899
:1033FC00C2B1012A0CBFC0F81080C0F8148008229A
:10340C006AE77545F3D06545F1D0DFF84490EBE7FA
:10341C00002261E7CA685FE7CA6808325CE7CA68DD
:10342C000C3259E7042257E70025A2E70125A0E753
:10343C0002259EE7000401400010024000080140F4
:10344C00000021100000311000003210000011109B
:10345C00000022100AB1016170470904FBE700006B
:10346C0003682DE9F341DB07054610D42B689F0751
:10347C005ED42B68190700F195802B685A0700F170
:10348C00BF80EA69002A40F02D81002014E0904CA6
:10349C00636803F00C03042B07D0636803F00C0380
:1034AC00082B0CD16368DE0309D523689C03DDD59A
:1034BC006B68002BDAD1012002B0BDE8F0816B689B
:1034CC00B3F5803F10D1236843F480332360FFF7BA
:1034DC006DFE064623689803C8D4FFF767FE801B71
:1034EC006428F7D90320E7E79BB9236823F48033DA
:1034FC002360236823F480232360FFF757FE0646DE
:10350C0023689903B2D5FFF751FE801B6428F7D9C5
:10351C00E8E7B3F5A02F236803D143F4802323609D
:10352C00D1E723F480332360236823F48023CDE791
:10353C00674C636813F00C0F07D0636803F00C033F
:10354C00082B10D16368DA030DD423689B0702D5CE
:10355C002B69012BAFD123686A6923F0F80343EA86
:10356C00C203236085E72A695A4B6AB101221A60AB
:10357C00FFF71CFE064623689F07ECD4FFF716FEE8
:10358C00801B0228F7D9ADE71A60FFF70FFE06463D
:10359C00236898077FF56DAFFFF708FE801B0228A4
:1035AC00F6D99FE7AA694A4C4B4BDAB101221A6053
:1035BC00FFF7FCFD0646636A9B070DD54FF4FA52E4
:1035CC00464B1B68B3FBF2F3019300BF019B5A1EE1
:1035DC000192002BF9D150E7FFF7E8FD801B022880
:1035EC00E9D97FE71A60FFF7E1FD0646636A9F079A
:1035FC007FF543AFFFF7DAFD801B0228F6D971E7A0
:10360C00334CE369D80024D40127E36943F0805399
:10361C00E361E36903F080530093009B304E336801
:10362C00D90518D5EB68012B26D1236A43F0010389
:10363C002362FFF7BBFD41F288368046236A9B0765
:10364C003FD5002F3FF41DAFE36923F08053E361B6
:10365C0017E70027E2E7336843F480733360FFF722
:10366C00A5FD80463368DA05DCD4FFF79FFDA0EB9F
:10367C0008006428F6D935E7ABB9236A41F28838DB
:10368C0023F001032362236A23F004032362FFF770
:10369C008DFD0646236A9807D3D5FFF787FD801B5F
:1036AC004045F7D91EE7052B236A03D143F00403E9
:1036BC002362BAE723F001032362236A23F0040395
:1036CC00B6E7FFF773FDA0EB0800B042B6D909E7E7
:1036DC0000100240000042428004424200000020E0
:1036EC0000700040224C636803F00C03082B3FF47D
:1036FC00E2AE00231F4E022A33602BD1FFF756FD9A
:10370C000746236899011FD42B6AB3F5803F05D176
:10371C006268A96822F400320A436260696A6268CE
:10372C000B4322F474121343636001233360FFF7DD
:10373C003DFD054623689A013FF5A7AEFFF736FD20
:10374C00401B0228F6D9CDE6FFF730FDC01B02283E
:10375C00D7D9C7E6FFF72AFD054623689B017FF5FD
:10376C0094AEFFF723FD401B0228F6D9BAE600BF42
:10377C00001002406000424230B51A4B87B002ACD8
:10378C0003F11005224618685968083303C2AB428E
:10379C001446F7D101238DF80430022312498DF819
:1037AC0005304B6803F00C02082A18D1C3F383428E
:1037BC00DB0348BF4B6806A8024448BFC3F3404331
:1037CC0012F8100C41BF06AA9B1813F8142C074BC7
:1037DC0054BF074BB3FBF2F3584307B030BD03485B
:1037EC00FBE700BF784100080010024000127A008D
:1037FC0000093D004D4A2DE9F0411368054603F0E0
:10380C0007038B420E4628D32A68910732D4D2077D
:10381C0038D4464A136803F007039E4273D32A68D0
:10382C00434C12F0040F79D1130706D563682A694B
:10383C0023F4605343EAC2036360FFF79DFF6368A0
:10384C003C4AC3F30313D35CD8403B4B18600020B5
:10385C00FFF77EFC0020BDE8F081136823F007031E
:10386C000B431360136803F007039942CCD001207B
:10387C00BDE8F0812E49A8684B6823F0F0030343A0
:10388C004B60C4E76A682A4C012A23681CD113F4E4
:10389C00003FECD0636841F2883823F003031343F4
:1038AC006360FFF783FC6B680746012B14D16368D8
:1038BC0003F00C03042BACD0FFF778FCC01B404585
:1038CC00F5D90320BDE8F081022A02D113F0007F64
:1038DC00DFE713F0020FDCE7022B0FD1636803F074
:1038EC000C03082B95D0FFF761FCC01B4045F5D9A4
:1038FC00E7E7FFF75BFCC01B4045E2D8636813F0B9
:10390C000C0FF6D185E7136823F0070333431360DC
:10391C00136803F007039E42A9D180E76368E96846
:10392C0023F4E0630B4363607EE700BF002002409A
:10393C00001002406644000800000020014B18688B
:10394C00704700BF000000201B4B30B59A6989B04E
:10395C0042F020029A619A69184D02F020020192FD
:10396C00019A9A69284642F004029A619A69FF21E9
:10397C0002F004020292029A9A69012442F00802AF
:10398C009A619B69002203F008030393039BFFF7E2
:10399C0061FDFF230493022304A928460793059491
:1039AC00FFF778FC002304A90548049405930693BB
:1039BC00FFF770FC09B030BD001002400008014058
:1039CC00000C014070B5D72400254443054EA54298
:1039DC0000DB70BD012210213046FFF73BFD0135A5
:1039EC00F5E700BF0010014070B56B24002544437F
:1039FC00054EA54200DB70BD012210213046FFF7B9
:103A0C0029FD0135F5E700BF001001407F2810B5F6
:103A1C00044640DD012235481146FFF71BFD803C72
:103A2C003F2C3EDD012202213048FFF713FD403CC4
:103A3C001F2C3CDD012204212C48FFF70BFD203C00
:103A4C000F2C3ADD012208212848FFF703FD103C1A
:103A5C00072C38DD012210212448FFF7FBFC083C21
:103A6C00032C36DD012220212048FFF7F3FC043C17
:103A7C00012C34DD012240211C48FFF7EBFC023CF9
:103A8C00002CC8BF0122BDE81040D8BF0022802105
:103A9C001648FFF7DFBC002201211448FFF7DAFCBF
:103AAC00BEE7002202211148FFF7D4FCC0E7002238
:103ABC0004210E48FFF7CEFCC2E7002208210B4878
:103ACC00FFF7C8FCC4E7002210210848FFF7C2FC2E
:103ADC00C6E7002220210548FFF7BCFCC8E70022FE
:103AEC0040210248FFF7B6FCCAE700BF00080140BE
:103AFC00412838B50FD10024CD4D55F82400FFF7DF
:103B0C0085FF0520FFF770FF01340020FFF77EFFD3
:103B1C00072CF2D138BD42280FD10024C54D55F8E1
:103B2C002400FFF773FF0520FFF75EFF0134002030
:103B3C00FFF76CFF072CF2D138BD43280FD10024BE
:103B4C00BD4D55F82400FFF761FF0520FFF74CFF32
:103B5C0001340020FFF75AFF072CF2D138BD44285E
:103B6C000FD10024B54D55F82400FFF74FFF052069
:103B7C00FFF73AFF01340020FFF748FF072CF2D182
:103B8C0038BD45280FD10024AD4D55F82400FFF762
:103B9C003DFF0520FFF728FF01340020FFF736FF1B
:103BAC00072CF2D138BD46280FD10024A54D55F86D
:103BBC002400FFF72BFF0520FFF716FF0134002030
:103BCC00FFF724FF072CF2D138BD47280FD1002472
:103BDC009D4D55F82400FFF719FF0520FFF704FF52
:103BEC0001340020FFF712FF072CF2D138BD482812
:103BFC000FD10024954D55F82400FFF707FF052041
:103C0C00FFF7F2FE01340020FFF700FF072CF2D182
:103C1C0038BD49280FD100248D4D55F82400FFF7ED
:103C2C00F5FE0520FFF7E0FE01340020FFF7EEFE65
:103C3C00072CF2D138BD4A280FD10024854D55F8F8
:103C4C002400FFF7E3FE0520FFF7CEFE0134002031
:103C5C00FFF7DCFE072CF2D138BD4B280FD1002426
:103C6C007D4D55F82400FFF7D1FE0520FFF7BCFE73
:103C7C0001340020FFF7CAFE072CF2D138BD4C28C6
:103C8C000FD10024754D55F82400FFF7BFFE052019
:103C9C00FFF7AAFE01340020FFF7B8FE072CF2D183
:103CAC0038BD4D280FD100246D4D55F82400FFF779
:103CBC00ADFE0520FFF798FE01340020FFF7A6FEAD
:103CCC00072CF2D138BD4E280FD10024654D55F884
:103CDC002400FFF79BFE0520FFF786FE0134002031
:103CEC00FFF794FE072CF2D138BD4F280FD10024DA
:103CFC005D4D55F82400FFF789FE0520FFF774FE93
:103D0C0001340020FFF782FE072CF2D138BD502879
:103D1C000FD10024554D55F82400FFF777FE0520F0
:103D2C00FFF762FE01340020FFF770FE072CF2D182
:103D3C0038BD51280FD100244D4D55F82400FFF704
:103D4C0065FE0520FFF750FE01340020FFF75EFEF4
:103D5C00072CF2D138BD52280FD10024454D55F80F
:103D6C002400FFF753FE0520FFF73EFE0134002030
:103D7C00FFF74CFE072CF2D138BD53280FD100248D
:103D8C003D4D55F82400FFF741FE0520FFF72CFEB2
:103D9C0001340020FFF73AFE072CF2D138BD54282D
:103DAC000FD10024354D55F82400FFF72FFE0520C8
:103DBC00FFF71AFE01340020FFF728FE072CF2D182
:103DCC0038BD55280FD100242D4D55F82400FFF790
:103DDC001DFE0520FFF708FE01340020FFF716FE3C
:103DEC00072CF2D138BD56280FD10024254D55F89B
:103DFC002400FFF70BFE0520FFF7F6FD0134002031
:103E0C00FFF704FE072CF2D138BD57283ED1002411
:103E1C001D4D55F82400FFF7F9FD0520FFF7E4FDD3
:103E2C0001340020FFF7F2FD072CF2D138BD00BFA2
:103E3C0088410008A4410008C0410008DC4100088A
:103E4C00F841000814420008304200084C420008B7
:103E5C006842000884420008A0420008BC420008E6
:103E6C00D8420008F4420008104300082C43000814
:103E7C004843000864430008804300089C43000842
:103E8C00B8430008D4430008F043000858280FD169
:103E9C000024194D55F82400FFF7B8FD0520FFF755
:103EAC00A3FD01340020FFF7B1FD072CF2D138BD82
:103EBC0059280FD10024114D55F82400FFF7A6FD09
:103ECC000520FFF791FD01340020FFF79FFD072C23
:103EDC00F2D138BD5A280ED10024094D55F82400D2
:103EEC00FFF794FD0520FFF77FFD01340020FFF75D
:103EFC008DFD072CF2D138BD0C4400082844000875
:103F0C004444000838B5044605462046FFF718F926
:103F1C002B1B984200D238BD15F8010BFFF7E8FDBA
:103F2C00F3E7022310B590B0069301230A931023F4
:103F3C000B93002306A80D93FFF792FA014600B1EC
:103F4C00FEE70F23029003900490059001A80193C3
:103F5C00FFF750FC044600B1FEE7FFF7EFFC4FF40F
:103F6C007A73B0FBF3F0FFF76DF90420FFF780F9DB
:103F7C00224621464FF0FF30FFF730F910B010BD4C
:103F8C0008B5FFF7F9F8FFF7CCFFFFF7DDFC0A4A9D
:103F9C000A4CD36843F08073D3600022084B5A60FC
:103FAC001A6842F001021A602046FFF7ABFF7F202F
:103FBC00FFF708FDF8E700BFF0ED00E060440008F3
:103FCC00001000E0214B07B59A69032042F0010272
:103FDC009A619B6903F001030193019BFFF7ECF8D5
:103FEC0000226FF00B001146FFF7F8F800226FF07B
:103FFC000A001146FFF7F2F800226FF00900114693
:10400C00FFF7ECF800226FF004001146FFF7E6F81A
:10401C0000226FF003001146FFF7E0F800226FF06A
:10402C0001001146FFF7DAF800224FF0FF3011467D
:10403C00FFF7D4F8064B5A6822F0E0625A605A68CF
:10404C0042F080625A6003B05DF804FB001002403D
:10405C00000001407047FEE7FEE7FEE7FEE7704711
:10406C007047704708B5FFF799F8BDE80840FFF7AF
:10407C000CB900000F4B1A6842F001021A60596823
:10408C000D4A0A405A601A6822F0847222F4803277
:10409C001A601A6822F480221A605A6822F4FE020E
:1040AC005A604FF41F029A604FF00062034B9A6003
:1040BC00704700BF001002400000FFF800ED00E068
:1040CC00002103E00B4B5B58435004310A480B4B67
:1040DC0042189A42F6D30A4A02E0002342F8043B03
:1040EC00084B9A42F9D3FFF7C5FF00F00FF8FFF722
:1040FC0047FF7047804400080000002004000020A7
:10410C000400002024000020FEE7000070B500250C
:10411C000C4E0D4CA41BA410A54209D100F01AF8AA
:10412C0000250A4E0A4CA41BA410A54205D170BD53
:10413C0056F8253098470135EEE756F82530984764
:10414C000135F2E778440008784400087844000808
:10415C007C440008F8B500BFF8BC08BC9E4670470C
:0C416C00F8B500BFF8BC08BC9E467047C8
:1041780002030405060708090A0B0C0D0E0F1010A0
:10418800FF000000FF0000009800000098000000F9
:10419800FF000000FF00000000000000FF0000001A
:1041A800FF0000009900000099000000990000003D
:1041B8006600000000000000FF000000FF00000093
:1041C800C3000000C3000000C3000000C3000000DB
:1041D80000000000FF000000FF000000DB000000FE
:1041E800DB000000FF0000007E000000000000006F
:1041F800FF000000FF000000DB000000DB00000003
:10420800C3000000C300000000000000FF00000021
:10421800FF000000D8000000D8000000C000000027
:10422800C0000000000000007E000000FF00000049
:10423800C300000085000000E700000066000000E1
:1042480000000000FF000000FF0000001800000050
:1042580018000000FF000000FF0000000000000040
:1042680000000000C3000000FF000000FF00000085
:10427800C30000000000000000000000060000006D
:10428800C7000000C3000000FF000000FE0000009F
:10429800C000000000000000FF000000FF00000058
:1042A800180000003C000000E7000000C300000008
:1042B80000000000FF000000FF00000003000000F5
:1042C80003000000030000000000000000000000E0
:1042D800FF000000FF000000600000003000000048
:1042E80060000000FF000000FF000000FF00000069
:1042F800FF0000006000000030000000180000000F
:10430800FF000000FF0000007E000000FF0000002A
:10431800C3000000C3000000FF0000007E00000092
:1043280000000000FF000000FF000000D8000000AF
:10433800D8000000F8000000F800000000000000AD
:104348007E000000FF0000008100000083000000E4
:10435800FF0000007E00000000000000FF000000D9
:10436800FF000000D8000000DC000000F70000009B
:10437800630000000000000066000000F700000075
:104388009300000093000000DF0000004E000000D2
:1043980000000000C0000000C0000000FF00000096
:1043A800FF000000C0000000C00000000000000086
:1043B800FE000000FF0000000300000003000000F2
:1043C800FF000000FE00000000000000E000000008
:1043D800FC0000001F000000030000001F00000098
:1043E800FC000000E0000000FF000000FF000000EB
:1043F800020000000400000002000000FF000000AE
:10440800FF000000C3000000F70000003E000000AD
:10441800180000003E000000F7000000C300000084
:10442800C0000000F00000003B0000003F0000005A
:10443800FC000000F0000000000000000000000088
:10444800C7000000CF000000DB000000F300000000
:10445800E3000000000000004D4943524F000000F7
:10446800000000000000010203040607080900001C
:0444780031310008D6
:04447C000D310008F6
:0444800000A24A0448
:04000005080040CDE2
:00000001FF
